{
  "contractName": "traceability",
  "abi": [
    {
      "inputs": [
        {
          "internalType": "string",
          "name": "name",
          "type": "string"
        },
        {
          "internalType": "string",
          "name": "addr",
          "type": "string"
        },
        {
          "internalType": "string",
          "name": "email",
          "type": "string"
        },
        {
          "internalType": "string",
          "name": "username",
          "type": "string"
        },
        {
          "internalType": "string",
          "name": "contact",
          "type": "string"
        },
        {
          "internalType": "string",
          "name": "password",
          "type": "string"
        },
        {
          "internalType": "uint256",
          "name": "role",
          "type": "uint256"
        }
      ],
      "name": "addManufacturer",
      "outputs": [],
      "stateMutability": "nonpayable",
      "type": "function"
    },
    {
      "inputs": [
        {
          "internalType": "string",
          "name": "username",
          "type": "string"
        }
      ],
      "name": "viewManufacturers",
      "outputs": [
        {
          "components": [
            {
              "internalType": "string",
              "name": "_name",
              "type": "string"
            },
            {
              "internalType": "string",
              "name": "_address",
              "type": "string"
            },
            {
              "internalType": "string",
              "name": "_email",
              "type": "string"
            },
            {
              "internalType": "string",
              "name": "_username",
              "type": "string"
            },
            {
              "internalType": "string",
              "name": "_contact",
              "type": "string"
            },
            {
              "internalType": "string",
              "name": "_password",
              "type": "string"
            },
            {
              "internalType": "uint256",
              "name": "_role",
              "type": "uint256"
            },
            {
              "internalType": "bool",
              "name": "_status",
              "type": "bool"
            }
          ],
          "internalType": "struct traceability.manufacturer",
          "name": "",
          "type": "tuple"
        }
      ],
      "stateMutability": "view",
      "type": "function",
      "constant": true
    },
    {
      "inputs": [
        {
          "internalType": "string",
          "name": "manu",
          "type": "string"
        },
        {
          "internalType": "string",
          "name": "productid",
          "type": "string"
        },
        {
          "internalType": "string",
          "name": "productname",
          "type": "string"
        },
        {
          "internalType": "string",
          "name": "productdescription",
          "type": "string"
        }
      ],
      "name": "addProduct",
      "outputs": [],
      "stateMutability": "nonpayable",
      "type": "function"
    },
    {
      "inputs": [
        {
          "internalType": "string",
          "name": "productid",
          "type": "string"
        }
      ],
      "name": "viewProduct",
      "outputs": [
        {
          "components": [
            {
              "internalType": "string",
              "name": "_manufacturer",
              "type": "string"
            },
            {
              "internalType": "string",
              "name": "_productId",
              "type": "string"
            },
            {
              "internalType": "string",
              "name": "_productName",
              "type": "string"
            },
            {
              "internalType": "string",
              "name": "_productDescription",
              "type": "string"
            },
            {
              "internalType": "string",
              "name": "_distributor",
              "type": "string"
            },
            {
              "internalType": "string",
              "name": "_retailer",
              "type": "string"
            },
            {
              "internalType": "bool",
              "name": "_productStatus",
              "type": "bool"
            },
            {
              "internalType": "bool",
              "name": "_distributorStatus",
              "type": "bool"
            },
            {
              "internalType": "bool",
              "name": "_retailerStatus",
              "type": "bool"
            }
          ],
          "internalType": "struct traceability.product",
          "name": "",
          "type": "tuple"
        }
      ],
      "stateMutability": "view",
      "type": "function",
      "constant": true
    },
    {
      "inputs": [],
      "name": "viewProducts",
      "outputs": [
        {
          "components": [
            {
              "internalType": "string",
              "name": "_manufacturer",
              "type": "string"
            },
            {
              "internalType": "string",
              "name": "_productId",
              "type": "string"
            },
            {
              "internalType": "string",
              "name": "_productName",
              "type": "string"
            },
            {
              "internalType": "string",
              "name": "_productDescription",
              "type": "string"
            },
            {
              "internalType": "string",
              "name": "_distributor",
              "type": "string"
            },
            {
              "internalType": "string",
              "name": "_retailer",
              "type": "string"
            },
            {
              "internalType": "bool",
              "name": "_productStatus",
              "type": "bool"
            },
            {
              "internalType": "bool",
              "name": "_distributorStatus",
              "type": "bool"
            },
            {
              "internalType": "bool",
              "name": "_retailerStatus",
              "type": "bool"
            }
          ],
          "internalType": "struct traceability.product[]",
          "name": "",
          "type": "tuple[]"
        }
      ],
      "stateMutability": "view",
      "type": "function",
      "constant": true
    },
    {
      "inputs": [
        {
          "internalType": "string",
          "name": "manu",
          "type": "string"
        },
        {
          "internalType": "string",
          "name": "productid",
          "type": "string"
        },
        {
          "internalType": "string",
          "name": "d",
          "type": "string"
        }
      ],
      "name": "updateDistributor",
      "outputs": [],
      "stateMutability": "nonpayable",
      "type": "function"
    },
    {
      "inputs": [
        {
          "internalType": "string",
          "name": "d",
          "type": "string"
        },
        {
          "internalType": "string",
          "name": "productid",
          "type": "string"
        },
        {
          "internalType": "string",
          "name": "r",
          "type": "string"
        }
      ],
      "name": "updateRetailer",
      "outputs": [],
      "stateMutability": "nonpayable",
      "type": "function"
    },
    {
      "inputs": [],
      "name": "viewUsers",
      "outputs": [
        {
          "components": [
            {
              "internalType": "string",
              "name": "_name",
              "type": "string"
            },
            {
              "internalType": "string",
              "name": "_address",
              "type": "string"
            },
            {
              "internalType": "string",
              "name": "_email",
              "type": "string"
            },
            {
              "internalType": "string",
              "name": "_username",
              "type": "string"
            },
            {
              "internalType": "string",
              "name": "_contact",
              "type": "string"
            },
            {
              "internalType": "string",
              "name": "_password",
              "type": "string"
            },
            {
              "internalType": "uint256",
              "name": "_role",
              "type": "uint256"
            },
            {
              "internalType": "bool",
              "name": "_status",
              "type": "bool"
            }
          ],
          "internalType": "struct traceability.manufacturer[]",
          "name": "",
          "type": "tuple[]"
        }
      ],
      "stateMutability": "view",
      "type": "function",
      "constant": true
    },
    {
      "inputs": [
        {
          "internalType": "string",
          "name": "username",
          "type": "string"
        }
      ],
      "name": "viewProductsByManu",
      "outputs": [
        {
          "components": [
            {
              "internalType": "string",
              "name": "_manufacturer",
              "type": "string"
            },
            {
              "internalType": "string",
              "name": "_productId",
              "type": "string"
            },
            {
              "internalType": "string",
              "name": "_productName",
              "type": "string"
            },
            {
              "internalType": "string",
              "name": "_productDescription",
              "type": "string"
            },
            {
              "internalType": "string",
              "name": "_distributor",
              "type": "string"
            },
            {
              "internalType": "string",
              "name": "_retailer",
              "type": "string"
            },
            {
              "internalType": "bool",
              "name": "_productStatus",
              "type": "bool"
            },
            {
              "internalType": "bool",
              "name": "_distributorStatus",
              "type": "bool"
            },
            {
              "internalType": "bool",
              "name": "_retailerStatus",
              "type": "bool"
            }
          ],
          "internalType": "struct traceability.product[]",
          "name": "",
          "type": "tuple[]"
        }
      ],
      "stateMutability": "view",
      "type": "function",
      "constant": true
    },
    {
      "inputs": [
        {
          "internalType": "string",
          "name": "distributor",
          "type": "string"
        }
      ],
      "name": "viewProductsByDistributor",
      "outputs": [
        {
          "components": [
            {
              "internalType": "string",
              "name": "_manufacturer",
              "type": "string"
            },
            {
              "internalType": "string",
              "name": "_productId",
              "type": "string"
            },
            {
              "internalType": "string",
              "name": "_productName",
              "type": "string"
            },
            {
              "internalType": "string",
              "name": "_productDescription",
              "type": "string"
            },
            {
              "internalType": "string",
              "name": "_distributor",
              "type": "string"
            },
            {
              "internalType": "string",
              "name": "_retailer",
              "type": "string"
            },
            {
              "internalType": "bool",
              "name": "_productStatus",
              "type": "bool"
            },
            {
              "internalType": "bool",
              "name": "_distributorStatus",
              "type": "bool"
            },
            {
              "internalType": "bool",
              "name": "_retailerStatus",
              "type": "bool"
            }
          ],
          "internalType": "struct traceability.product[]",
          "name": "",
          "type": "tuple[]"
        }
      ],
      "stateMutability": "view",
      "type": "function",
      "constant": true
    },
    {
      "inputs": [
        {
          "internalType": "string",
          "name": "retailer",
          "type": "string"
        }
      ],
      "name": "viewProductsByRetailer",
      "outputs": [
        {
          "components": [
            {
              "internalType": "string",
              "name": "_manufacturer",
              "type": "string"
            },
            {
              "internalType": "string",
              "name": "_productId",
              "type": "string"
            },
            {
              "internalType": "string",
              "name": "_productName",
              "type": "string"
            },
            {
              "internalType": "string",
              "name": "_productDescription",
              "type": "string"
            },
            {
              "internalType": "string",
              "name": "_distributor",
              "type": "string"
            },
            {
              "internalType": "string",
              "name": "_retailer",
              "type": "string"
            },
            {
              "internalType": "bool",
              "name": "_productStatus",
              "type": "bool"
            },
            {
              "internalType": "bool",
              "name": "_distributorStatus",
              "type": "bool"
            },
            {
              "internalType": "bool",
              "name": "_retailerStatus",
              "type": "bool"
            }
          ],
          "internalType": "struct traceability.product[]",
          "name": "",
          "type": "tuple[]"
        }
      ],
      "stateMutability": "view",
      "type": "function",
      "constant": true
    },
    {
      "inputs": [
        {
          "internalType": "string",
          "name": "productId",
          "type": "string"
        }
      ],
      "name": "traceProduct",
      "outputs": [
        {
          "internalType": "string",
          "name": "productName",
          "type": "string"
        },
        {
          "internalType": "string",
          "name": "productDescription",
          "type": "string"
        },
        {
          "internalType": "string",
          "name": "manufacturerName",
          "type": "string"
        },
        {
          "internalType": "string",
          "name": "manufacturerAddress",
          "type": "string"
        },
        {
          "internalType": "string",
          "name": "distributorName",
          "type": "string"
        },
        {
          "internalType": "string",
          "name": "distributorAddress",
          "type": "string"
        },
        {
          "internalType": "string",
          "name": "retailerName",
          "type": "string"
        },
        {
          "internalType": "string",
          "name": "retailerAddress",
          "type": "string"
        }
      ],
      "stateMutability": "view",
      "type": "function",
      "constant": true
    }
  ],
  "bytecode": "0x608060405234801561001057600080fd5b50614e16806100206000396000f3fe608060405234801561001057600080fd5b50600436106100b45760003560e01c8063ce435b2111610071578063ce435b21146101a6578063d3012464146101d6578063dd93eed1146101f2578063f9f24da114610222578063fa06897714610240578063fde74e8114610270576100b4565b806314ebdb79146100b95780632bbe8338146100d757806330b861071461010757806395e02884146101235780639c05ab261461013f578063ab4d675e14610176575b600080fd5b6100c161028c565b6040516100ce9190613f24565b60405180910390f35b6100f160048036038101906100ec919061408f565b61070c565b6040516100fe91906141ab565b60405180910390f35b610121600480360381019061011c91906141cd565b610ad6565b005b61013d600480360381019061013891906142a0565b610bf3565b005b6101596004803603810190610154919061408f565b610db2565b60405161016d989796959493929190614434565b60405180910390f35b610190600480360381019061018b919061408f565b611e48565b60405161019d91906145d2565b60405180910390f35b6101c060048036038101906101bb919061408f565b61223e565b6040516101cd919061479e565b60405180910390f35b6101f060048036038101906101eb91906141cd565b61284d565b005b61020c6004803603810190610207919061408f565b61296a565b604051610219919061479e565b60405180910390f35b61022a612f79565b604051610237919061479e565b60405180910390f35b61025a6004803603810190610255919061408f565b613424565b604051610267919061479e565b60405180910390f35b61028a600480360381019061028591906147c0565b613a33565b005b6060600060018054905067ffffffffffffffff8111156102af576102ae613f64565b5b6040519080825280602002602001820160405280156102e857816020015b6102d5613c32565b8152602001906001900390816102cd5790505b50905060005b6001805490508110156107045760026001828154811061031157610310614897565b5b9060005260206000200160405161032891906149c9565b908152602001604051809103902060405180610100016040529081600082018054610352906148f5565b80601f016020809104026020016040519081016040528092919081815260200182805461037e906148f5565b80156103cb5780601f106103a0576101008083540402835291602001916103cb565b820191906000526020600020905b8154815290600101906020018083116103ae57829003601f168201915b505050505081526020016001820180546103e4906148f5565b80601f0160208091040260200160405190810160405280929190818152602001828054610410906148f5565b801561045d5780601f106104325761010080835404028352916020019161045d565b820191906000526020600020905b81548152906001019060200180831161044057829003601f168201915b50505050508152602001600282018054610476906148f5565b80601f01602080910402602001604051908101604052809291908181526020018280546104a2906148f5565b80156104ef5780601f106104c4576101008083540402835291602001916104ef565b820191906000526020600020905b8154815290600101906020018083116104d257829003601f168201915b50505050508152602001600382018054610508906148f5565b80601f0160208091040260200160405190810160405280929190818152602001828054610534906148f5565b80156105815780601f1061055657610100808354040283529160200191610581565b820191906000526020600020905b81548152906001019060200180831161056457829003601f168201915b5050505050815260200160048201805461059a906148f5565b80601f01602080910402602001604051908101604052809291908181526020018280546105c6906148f5565b80156106135780601f106105e857610100808354040283529160200191610613565b820191906000526020600020905b8154815290600101906020018083116105f657829003601f168201915b5050505050815260200160058201805461062c906148f5565b80601f0160208091040260200160405190810160405280929190818152602001828054610658906148f5565b80156106a55780601f1061067a576101008083540402835291602001916106a5565b820191906000526020600020905b81548152906001019060200180831161068857829003601f168201915b50505050508152602001600682015481526020016007820160009054906101000a900460ff1615151515815250508282815181106106e6576106e5614897565b5b602002602001018190525080806106fc90614a0f565b9150506102ee565b508091505090565b610714613c32565b6002826040516107249190614a88565b90815260200160405180910390206040518061010001604052908160008201805461074e906148f5565b80601f016020809104026020016040519081016040528092919081815260200182805461077a906148f5565b80156107c75780601f1061079c576101008083540402835291602001916107c7565b820191906000526020600020905b8154815290600101906020018083116107aa57829003601f168201915b505050505081526020016001820180546107e0906148f5565b80601f016020809104026020016040519081016040528092919081815260200182805461080c906148f5565b80156108595780601f1061082e57610100808354040283529160200191610859565b820191906000526020600020905b81548152906001019060200180831161083c57829003601f168201915b50505050508152602001600282018054610872906148f5565b80601f016020809104026020016040519081016040528092919081815260200182805461089e906148f5565b80156108eb5780601f106108c0576101008083540402835291602001916108eb565b820191906000526020600020905b8154815290600101906020018083116108ce57829003601f168201915b50505050508152602001600382018054610904906148f5565b80601f0160208091040260200160405190810160405280929190818152602001828054610930906148f5565b801561097d5780601f106109525761010080835404028352916020019161097d565b820191906000526020600020905b81548152906001019060200180831161096057829003601f168201915b50505050508152602001600482018054610996906148f5565b80601f01602080910402602001604051908101604052809291908181526020018280546109c2906148f5565b8015610a0f5780601f106109e457610100808354040283529160200191610a0f565b820191906000526020600020905b8154815290600101906020018083116109f257829003601f168201915b50505050508152602001600582018054610a28906148f5565b80601f0160208091040260200160405190810160405280929190818152602001828054610a54906148f5565b8015610aa15780601f10610a7657610100808354040283529160200191610aa1565b820191906000526020600020905b815481529060010190602001808311610a8457829003601f168201915b50505050508152602001600682015481526020016007820160009054906101000a900460ff1615151515815250509050919050565b82604051602001610ae79190614a88565b60405160208183030381529060405280519060200120600383604051610b0d9190614a88565b9081526020016040518091039020600401604051602001610b2e91906149c9565b6040516020818303038152906040528051906020012003610bee5760011515600383604051610b5d9190614a88565b908152602001604051809103902060060160019054906101000a900460ff16151503610bed5780600383604051610b949190614a88565b90815260200160405180910390206005019081610bb19190614c36565b506001600383604051610bc49190614a88565b908152602001604051809103902060060160026101000a81548160ff0219169083151502179055505b5b505050565b600284604051610c039190614a88565b908152602001604051809103902060070160009054906101000a900460ff1615610c62576040517f08c379a0000000000000000000000000000000000000000000000000000000008152600401610c5990614d54565b60405180910390fd5b600060405180610100016040528089815260200188815260200187815260200186815260200185815260200184815260200183815260200160011515815250905080600286604051610cb49190614a88565b90815260200160405180910390206000820151816000019081610cd79190614c36565b506020820151816001019081610ced9190614c36565b506040820151816002019081610d039190614c36565b506060820151816003019081610d199190614c36565b506080820151816004019081610d2f9190614c36565b5060a0820151816005019081610d459190614c36565b5060c0820151816006015560e08201518160070160006101000a81548160ff021916908315150217905550905050600185908060018154018082558091505060019003906000526020600020016000909190919091509081610da79190614c36565b505050505050505050565b606080606080606080606080600060038a604051610dd09190614a88565b908152602001604051809103902060405180610120016040529081600082018054610dfa906148f5565b80601f0160208091040260200160405190810160405280929190818152602001828054610e26906148f5565b8015610e735780601f10610e4857610100808354040283529160200191610e73565b820191906000526020600020905b815481529060010190602001808311610e5657829003601f168201915b50505050508152602001600182018054610e8c906148f5565b80601f0160208091040260200160405190810160405280929190818152602001828054610eb8906148f5565b8015610f055780601f10610eda57610100808354040283529160200191610f05565b820191906000526020600020905b815481529060010190602001808311610ee857829003601f168201915b50505050508152602001600282018054610f1e906148f5565b80601f0160208091040260200160405190810160405280929190818152602001828054610f4a906148f5565b8015610f975780601f10610f6c57610100808354040283529160200191610f97565b820191906000526020600020905b815481529060010190602001808311610f7a57829003601f168201915b50505050508152602001600382018054610fb0906148f5565b80601f0160208091040260200160405190810160405280929190818152602001828054610fdc906148f5565b80156110295780601f10610ffe57610100808354040283529160200191611029565b820191906000526020600020905b81548152906001019060200180831161100c57829003601f168201915b50505050508152602001600482018054611042906148f5565b80601f016020809104026020016040519081016040528092919081815260200182805461106e906148f5565b80156110bb5780601f10611090576101008083540402835291602001916110bb565b820191906000526020600020905b81548152906001019060200180831161109e57829003601f168201915b505050505081526020016005820180546110d4906148f5565b80601f0160208091040260200160405190810160405280929190818152602001828054611100906148f5565b801561114d5780601f106111225761010080835404028352916020019161114d565b820191906000526020600020905b81548152906001019060200180831161113057829003601f168201915b505050505081526020016006820160009054906101000a900460ff161515151581526020016006820160019054906101000a900460ff161515151581526020016006820160029054906101000a900460ff16151515158152505090506000600282600001516040516111bf9190614a88565b9081526020016040518091039020604051806101000160405290816000820180546111e9906148f5565b80601f0160208091040260200160405190810160405280929190818152602001828054611215906148f5565b80156112625780601f1061123757610100808354040283529160200191611262565b820191906000526020600020905b81548152906001019060200180831161124557829003601f168201915b5050505050815260200160018201805461127b906148f5565b80601f01602080910402602001604051908101604052809291908181526020018280546112a7906148f5565b80156112f45780601f106112c9576101008083540402835291602001916112f4565b820191906000526020600020905b8154815290600101906020018083116112d757829003601f168201915b5050505050815260200160028201805461130d906148f5565b80601f0160208091040260200160405190810160405280929190818152602001828054611339906148f5565b80156113865780601f1061135b57610100808354040283529160200191611386565b820191906000526020600020905b81548152906001019060200180831161136957829003601f168201915b5050505050815260200160038201805461139f906148f5565b80601f01602080910402602001604051908101604052809291908181526020018280546113cb906148f5565b80156114185780601f106113ed57610100808354040283529160200191611418565b820191906000526020600020905b8154815290600101906020018083116113fb57829003601f168201915b50505050508152602001600482018054611431906148f5565b80601f016020809104026020016040519081016040528092919081815260200182805461145d906148f5565b80156114aa5780601f1061147f576101008083540402835291602001916114aa565b820191906000526020600020905b81548152906001019060200180831161148d57829003601f168201915b505050505081526020016005820180546114c3906148f5565b80601f01602080910402602001604051908101604052809291908181526020018280546114ef906148f5565b801561153c5780601f106115115761010080835404028352916020019161153c565b820191906000526020600020905b81548152906001019060200180831161151f57829003601f168201915b50505050508152602001600682015481526020016007820160009054906101000a900460ff161515151581525050905060006040518060400160405280600c81526020017f4e6f742041737369676e65640000000000000000000000000000000000000000815250905060006040518060400160405280600c81526020017f4e6f742041737369676e65640000000000000000000000000000000000000000815250905060006040518060400160405280600c81526020017f4e6f742041737369676e65640000000000000000000000000000000000000000815250905060006040518060400160405280600c81526020017f4e6f742041737369676e6564000000000000000000000000000000000000000081525090508560e0015115611a31576000600287608001516040516116749190614a88565b90815260200160405180910390206040518061010001604052908160008201805461169e906148f5565b80601f01602080910402602001604051908101604052809291908181526020018280546116ca906148f5565b80156117175780601f106116ec57610100808354040283529160200191611717565b820191906000526020600020905b8154815290600101906020018083116116fa57829003601f168201915b50505050508152602001600182018054611730906148f5565b80601f016020809104026020016040519081016040528092919081815260200182805461175c906148f5565b80156117a95780601f1061177e576101008083540402835291602001916117a9565b820191906000526020600020905b81548152906001019060200180831161178c57829003601f168201915b505050505081526020016002820180546117c2906148f5565b80601f01602080910402602001604051908101604052809291908181526020018280546117ee906148f5565b801561183b5780601f106118105761010080835404028352916020019161183b565b820191906000526020600020905b81548152906001019060200180831161181e57829003601f168201915b50505050508152602001600382018054611854906148f5565b80601f0160208091040260200160405190810160405280929190818152602001828054611880906148f5565b80156118cd5780601f106118a2576101008083540402835291602001916118cd565b820191906000526020600020905b8154815290600101906020018083116118b057829003601f168201915b505050505081526020016004820180546118e6906148f5565b80601f0160208091040260200160405190810160405280929190818152602001828054611912906148f5565b801561195f5780601f106119345761010080835404028352916020019161195f565b820191906000526020600020905b81548152906001019060200180831161194257829003601f168201915b50505050508152602001600582018054611978906148f5565b80601f01602080910402602001604051908101604052809291908181526020018280546119a4906148f5565b80156119f15780601f106119c6576101008083540402835291602001916119f1565b820191906000526020600020905b8154815290600101906020018083116119d457829003601f168201915b50505050508152602001600682015481526020016007820160009054906101000a900460ff16151515158152505090508060000151945080602001519350505b85610100015115611e0f57600060028760a00151604051611a529190614a88565b908152602001604051809103902060405180610100016040529081600082018054611a7c906148f5565b80601f0160208091040260200160405190810160405280929190818152602001828054611aa8906148f5565b8015611af55780601f10611aca57610100808354040283529160200191611af5565b820191906000526020600020905b815481529060010190602001808311611ad857829003601f168201915b50505050508152602001600182018054611b0e906148f5565b80601f0160208091040260200160405190810160405280929190818152602001828054611b3a906148f5565b8015611b875780601f10611b5c57610100808354040283529160200191611b87565b820191906000526020600020905b815481529060010190602001808311611b6a57829003601f168201915b50505050508152602001600282018054611ba0906148f5565b80601f0160208091040260200160405190810160405280929190818152602001828054611bcc906148f5565b8015611c195780601f10611bee57610100808354040283529160200191611c19565b820191906000526020600020905b815481529060010190602001808311611bfc57829003601f168201915b50505050508152602001600382018054611c32906148f5565b80601f0160208091040260200160405190810160405280929190818152602001828054611c5e906148f5565b8015611cab5780601f10611c8057610100808354040283529160200191611cab565b820191906000526020600020905b815481529060010190602001808311611c8e57829003601f168201915b50505050508152602001600482018054611cc4906148f5565b80601f0160208091040260200160405190810160405280929190818152602001828054611cf0906148f5565b8015611d3d5780601f10611d1257610100808354040283529160200191611d3d565b820191906000526020600020905b815481529060010190602001808311611d2057829003601f168201915b50505050508152602001600582018054611d56906148f5565b80601f0160208091040260200160405190810160405280929190818152602001828054611d82906148f5565b8015611dcf5780601f10611da457610100808354040283529160200191611dcf565b820191906000526020600020905b815481529060010190602001808311611db257829003601f168201915b50505050508152602001600682015481526020016007820160009054906101000a900460ff16151515158152505090508060000151925080602001519150505b8560400151866060015186600001518760200151878787879d509d509d509d509d509d509d509d50505050505050919395975091939597565b611e50613c79565b600382604051611e609190614a88565b908152602001604051809103902060405180610120016040529081600082018054611e8a906148f5565b80601f0160208091040260200160405190810160405280929190818152602001828054611eb6906148f5565b8015611f035780601f10611ed857610100808354040283529160200191611f03565b820191906000526020600020905b815481529060010190602001808311611ee657829003601f168201915b50505050508152602001600182018054611f1c906148f5565b80601f0160208091040260200160405190810160405280929190818152602001828054611f48906148f5565b8015611f955780601f10611f6a57610100808354040283529160200191611f95565b820191906000526020600020905b815481529060010190602001808311611f7857829003601f168201915b50505050508152602001600282018054611fae906148f5565b80601f0160208091040260200160405190810160405280929190818152602001828054611fda906148f5565b80156120275780601f10611ffc57610100808354040283529160200191612027565b820191906000526020600020905b81548152906001019060200180831161200a57829003601f168201915b50505050508152602001600382018054612040906148f5565b80601f016020809104026020016040519081016040528092919081815260200182805461206c906148f5565b80156120b95780601f1061208e576101008083540402835291602001916120b9565b820191906000526020600020905b81548152906001019060200180831161209c57829003601f168201915b505050505081526020016004820180546120d2906148f5565b80601f01602080910402602001604051908101604052809291908181526020018280546120fe906148f5565b801561214b5780601f106121205761010080835404028352916020019161214b565b820191906000526020600020905b81548152906001019060200180831161212e57829003601f168201915b50505050508152602001600582018054612164906148f5565b80601f0160208091040260200160405190810160405280929190818152602001828054612190906148f5565b80156121dd5780601f106121b2576101008083540402835291602001916121dd565b820191906000526020600020905b8154815290600101906020018083116121c057829003601f168201915b505050505081526020016006820160009054906101000a900460ff161515151581526020016006820160019054906101000a900460ff161515151581526020016006820160029054906101000a900460ff1615151515815250509050919050565b60606000805b60008054905081101561230357836040516020016122629190614a88565b6040516020818303038152906040528051906020012060036000838154811061228e5761228d614897565b5b906000526020600020016040516122a591906149c9565b90815260200160405180910390206000016040516020016122c691906149c9565b60405160208183030381529060405280519060200120036122f05781806122ec90614a0f565b9250505b80806122fb90614a0f565b915050612244565b5060008167ffffffffffffffff8111156123205761231f613f64565b5b60405190808252806020026020018201604052801561235957816020015b612346613c79565b81526020019060019003908161233e5790505b5090506000805b600080549050811015612841578560405160200161237e9190614a88565b604051602081830303815290604052805190602001206003600083815481106123aa576123a9614897565b5b906000526020600020016040516123c191906149c9565b90815260200160405180910390206000016040516020016123e291906149c9565b604051602081830303815290604052805190602001200361282e5760036000828154811061241357612412614897565b5b9060005260206000200160405161242a91906149c9565b908152602001604051809103902060405180610120016040529081600082018054612454906148f5565b80601f0160208091040260200160405190810160405280929190818152602001828054612480906148f5565b80156124cd5780601f106124a2576101008083540402835291602001916124cd565b820191906000526020600020905b8154815290600101906020018083116124b057829003601f168201915b505050505081526020016001820180546124e6906148f5565b80601f0160208091040260200160405190810160405280929190818152602001828054612512906148f5565b801561255f5780601f106125345761010080835404028352916020019161255f565b820191906000526020600020905b81548152906001019060200180831161254257829003601f168201915b50505050508152602001600282018054612578906148f5565b80601f01602080910402602001604051908101604052809291908181526020018280546125a4906148f5565b80156125f15780601f106125c6576101008083540402835291602001916125f1565b820191906000526020600020905b8154815290600101906020018083116125d457829003601f168201915b5050505050815260200160038201805461260a906148f5565b80601f0160208091040260200160405190810160405280929190818152602001828054612636906148f5565b80156126835780601f1061265857610100808354040283529160200191612683565b820191906000526020600020905b81548152906001019060200180831161266657829003601f168201915b5050505050815260200160048201805461269c906148f5565b80601f01602080910402602001604051908101604052809291908181526020018280546126c8906148f5565b80156127155780601f106126ea57610100808354040283529160200191612715565b820191906000526020600020905b8154815290600101906020018083116126f857829003601f168201915b5050505050815260200160058201805461272e906148f5565b80601f016020809104026020016040519081016040528092919081815260200182805461275a906148f5565b80156127a75780601f1061277c576101008083540402835291602001916127a7565b820191906000526020600020905b81548152906001019060200180831161278a57829003601f168201915b505050505081526020016006820160009054906101000a900460ff161515151581526020016006820160019054906101000a900460ff161515151581526020016006820160029054906101000a900460ff16151515158152505083838151811061281457612813614897565b5b6020026020010181905250818061282a90614a0f565b9250505b808061283990614a0f565b915050612360565b50819350505050919050565b8260405160200161285e9190614a88565b604051602081830303815290604052805190602001206003836040516128849190614a88565b90815260200160405180910390206000016040516020016128a591906149c9565b604051602081830303815290604052805190602001200361296557600015156003836040516128d49190614a88565b908152602001604051809103902060060160019054906101000a900460ff16151503612964578060038360405161290b9190614a88565b908152602001604051809103902060040190816129289190614c36565b50600160038360405161293b9190614a88565b908152602001604051809103902060060160016101000a81548160ff0219169083151502179055505b5b505050565b60606000805b600080549050811015612a2f578360405160200161298e9190614a88565b604051602081830303815290604052805190602001206003600083815481106129ba576129b9614897565b5b906000526020600020016040516129d191906149c9565b90815260200160405180910390206005016040516020016129f291906149c9565b6040516020818303038152906040528051906020012003612a1c578180612a1890614a0f565b9250505b8080612a2790614a0f565b915050612970565b5060008167ffffffffffffffff811115612a4c57612a4b613f64565b5b604051908082528060200260200182016040528015612a8557816020015b612a72613c79565b815260200190600190039081612a6a5790505b5090506000805b600080549050811015612f6d5785604051602001612aaa9190614a88565b60405160208183030381529060405280519060200120600360008381548110612ad657612ad5614897565b5b90600052602060002001604051612aed91906149c9565b9081526020016040518091039020600501604051602001612b0e91906149c9565b6040516020818303038152906040528051906020012003612f5a57600360008281548110612b3f57612b3e614897565b5b90600052602060002001604051612b5691906149c9565b908152602001604051809103902060405180610120016040529081600082018054612b80906148f5565b80601f0160208091040260200160405190810160405280929190818152602001828054612bac906148f5565b8015612bf95780601f10612bce57610100808354040283529160200191612bf9565b820191906000526020600020905b815481529060010190602001808311612bdc57829003601f168201915b50505050508152602001600182018054612c12906148f5565b80601f0160208091040260200160405190810160405280929190818152602001828054612c3e906148f5565b8015612c8b5780601f10612c6057610100808354040283529160200191612c8b565b820191906000526020600020905b815481529060010190602001808311612c6e57829003601f168201915b50505050508152602001600282018054612ca4906148f5565b80601f0160208091040260200160405190810160405280929190818152602001828054612cd0906148f5565b8015612d1d5780601f10612cf257610100808354040283529160200191612d1d565b820191906000526020600020905b815481529060010190602001808311612d0057829003601f168201915b50505050508152602001600382018054612d36906148f5565b80601f0160208091040260200160405190810160405280929190818152602001828054612d62906148f5565b8015612daf5780601f10612d8457610100808354040283529160200191612daf565b820191906000526020600020905b815481529060010190602001808311612d9257829003601f168201915b50505050508152602001600482018054612dc8906148f5565b80601f0160208091040260200160405190810160405280929190818152602001828054612df4906148f5565b8015612e415780601f10612e1657610100808354040283529160200191612e41565b820191906000526020600020905b815481529060010190602001808311612e2457829003601f168201915b50505050508152602001600582018054612e5a906148f5565b80601f0160208091040260200160405190810160405280929190818152602001828054612e86906148f5565b8015612ed35780601f10612ea857610100808354040283529160200191612ed3565b820191906000526020600020905b815481529060010190602001808311612eb657829003601f168201915b505050505081526020016006820160009054906101000a900460ff161515151581526020016006820160019054906101000a900460ff161515151581526020016006820160029054906101000a900460ff161515151581525050838381518110612f4057612f3f614897565b5b60200260200101819052508180612f5690614a0f565b9250505b8080612f6590614a0f565b915050612a8c565b50819350505050919050565b60606000808054905067ffffffffffffffff811115612f9b57612f9a613f64565b5b604051908082528060200260200182016040528015612fd457816020015b612fc1613c79565b815260200190600190039081612fb95790505b50905060005b60008054905081101561341c57600360008281548110612ffd57612ffc614897565b5b9060005260206000200160405161301491906149c9565b90815260200160405180910390206040518061012001604052908160008201805461303e906148f5565b80601f016020809104026020016040519081016040528092919081815260200182805461306a906148f5565b80156130b75780601f1061308c576101008083540402835291602001916130b7565b820191906000526020600020905b81548152906001019060200180831161309a57829003601f168201915b505050505081526020016001820180546130d0906148f5565b80601f01602080910402602001604051908101604052809291908181526020018280546130fc906148f5565b80156131495780601f1061311e57610100808354040283529160200191613149565b820191906000526020600020905b81548152906001019060200180831161312c57829003601f168201915b50505050508152602001600282018054613162906148f5565b80601f016020809104026020016040519081016040528092919081815260200182805461318e906148f5565b80156131db5780601f106131b0576101008083540402835291602001916131db565b820191906000526020600020905b8154815290600101906020018083116131be57829003601f168201915b505050505081526020016003820180546131f4906148f5565b80601f0160208091040260200160405190810160405280929190818152602001828054613220906148f5565b801561326d5780601f106132425761010080835404028352916020019161326d565b820191906000526020600020905b81548152906001019060200180831161325057829003601f168201915b50505050508152602001600482018054613286906148f5565b80601f01602080910402602001604051908101604052809291908181526020018280546132b2906148f5565b80156132ff5780601f106132d4576101008083540402835291602001916132ff565b820191906000526020600020905b8154815290600101906020018083116132e257829003601f168201915b50505050508152602001600582018054613318906148f5565b80601f0160208091040260200160405190810160405280929190818152602001828054613344906148f5565b80156133915780601f1061336657610100808354040283529160200191613391565b820191906000526020600020905b81548152906001019060200180831161337457829003601f168201915b505050505081526020016006820160009054906101000a900460ff161515151581526020016006820160019054906101000a900460ff161515151581526020016006820160029054906101000a900460ff1615151515815250508282815181106133fe576133fd614897565b5b6020026020010181905250808061341490614a0f565b915050612fda565b508091505090565b60606000805b6000805490508110156134e957836040516020016134489190614a88565b6040516020818303038152906040528051906020012060036000838154811061347457613473614897565b5b9060005260206000200160405161348b91906149c9565b90815260200160405180910390206004016040516020016134ac91906149c9565b60405160208183030381529060405280519060200120036134d65781806134d290614a0f565b9250505b80806134e190614a0f565b91505061342a565b5060008167ffffffffffffffff81111561350657613505613f64565b5b60405190808252806020026020018201604052801561353f57816020015b61352c613c79565b8152602001906001900390816135245790505b5090506000805b600080549050811015613a2757856040516020016135649190614a88565b604051602081830303815290604052805190602001206003600083815481106135905761358f614897565b5b906000526020600020016040516135a791906149c9565b90815260200160405180910390206004016040516020016135c891906149c9565b6040516020818303038152906040528051906020012003613a14576003600082815481106135f9576135f8614897565b5b9060005260206000200160405161361091906149c9565b90815260200160405180910390206040518061012001604052908160008201805461363a906148f5565b80601f0160208091040260200160405190810160405280929190818152602001828054613666906148f5565b80156136b35780601f10613688576101008083540402835291602001916136b3565b820191906000526020600020905b81548152906001019060200180831161369657829003601f168201915b505050505081526020016001820180546136cc906148f5565b80601f01602080910402602001604051908101604052809291908181526020018280546136f8906148f5565b80156137455780601f1061371a57610100808354040283529160200191613745565b820191906000526020600020905b81548152906001019060200180831161372857829003601f168201915b5050505050815260200160028201805461375e906148f5565b80601f016020809104026020016040519081016040528092919081815260200182805461378a906148f5565b80156137d75780601f106137ac576101008083540402835291602001916137d7565b820191906000526020600020905b8154815290600101906020018083116137ba57829003601f168201915b505050505081526020016003820180546137f0906148f5565b80601f016020809104026020016040519081016040528092919081815260200182805461381c906148f5565b80156138695780601f1061383e57610100808354040283529160200191613869565b820191906000526020600020905b81548152906001019060200180831161384c57829003601f168201915b50505050508152602001600482018054613882906148f5565b80601f01602080910402602001604051908101604052809291908181526020018280546138ae906148f5565b80156138fb5780601f106138d0576101008083540402835291602001916138fb565b820191906000526020600020905b8154815290600101906020018083116138de57829003601f168201915b50505050508152602001600582018054613914906148f5565b80601f0160208091040260200160405190810160405280929190818152602001828054613940906148f5565b801561398d5780601f106139625761010080835404028352916020019161398d565b820191906000526020600020905b81548152906001019060200180831161397057829003601f168201915b505050505081526020016006820160009054906101000a900460ff161515151581526020016006820160019054906101000a900460ff161515151581526020016006820160029054906101000a900460ff1615151515815250508383815181106139fa576139f9614897565b5b60200260200101819052508180613a1090614a0f565b9250505b8080613a1f90614a0f565b915050613546565b50819350505050919050565b600383604051613a439190614a88565b908152602001604051809103902060060160009054906101000a900460ff1615613aa2576040517f08c379a0000000000000000000000000000000000000000000000000000000008152600401613a9990614dc0565b60405180910390fd5b600060405180610120016040528086815260200185815260200184815260200183815260200186815260200186815260200160011515815260200160001515815260200160001515815250905080600385604051613b009190614a88565b90815260200160405180910390206000820151816000019081613b239190614c36565b506020820151816001019081613b399190614c36565b506040820151816002019081613b4f9190614c36565b506060820151816003019081613b659190614c36565b506080820151816004019081613b7b9190614c36565b5060a0820151816005019081613b919190614c36565b5060c08201518160060160006101000a81548160ff02191690831515021790555060e08201518160060160016101000a81548160ff0219169083151502179055506101008201518160060160026101000a81548160ff021916908315150217905550905050600084908060018154018082558091505060019003906000526020600020016000909190919091509081613c2a9190614c36565b505050505050565b604051806101000160405280606081526020016060815260200160608152602001606081526020016060815260200160608152602001600081526020016000151581525090565b6040518061012001604052806060815260200160608152602001606081526020016060815260200160608152602001606081526020016000151581526020016000151581526020016000151581525090565b600081519050919050565b600082825260208201905092915050565b6000819050602082019050919050565b600081519050919050565b600082825260208201905092915050565b60005b83811015613d31578082015181840152602081019050613d16565b60008484015250505050565b6000601f19601f8301169050919050565b6000613d5982613cf7565b613d638185613d02565b9350613d73818560208601613d13565b613d7c81613d3d565b840191505092915050565b6000819050919050565b613d9a81613d87565b82525050565b60008115159050919050565b613db581613da0565b82525050565b6000610100830160008301518482036000860152613dd98282613d4e565b91505060208301518482036020860152613df38282613d4e565b91505060408301518482036040860152613e0d8282613d4e565b91505060608301518482036060860152613e278282613d4e565b91505060808301518482036080860152613e418282613d4e565b91505060a083015184820360a0860152613e5b8282613d4e565b91505060c0830151613e7060c0860182613d91565b5060e0830151613e8360e0860182613dac565b508091505092915050565b6000613e9a8383613dbb565b905092915050565b6000602082019050919050565b6000613eba82613ccb565b613ec48185613cd6565b935083602082028501613ed685613ce7565b8060005b85811015613f125784840389528151613ef38582613e8e565b9450613efe83613ea2565b925060208a01995050600181019050613eda565b50829750879550505050505092915050565b60006020820190508181036000830152613f3e8184613eaf565b905092915050565b6000604051905090565b600080fd5b600080fd5b600080fd5b600080fd5b7f4e487b7100000000000000000000000000000000000000000000000000000000600052604160045260246000fd5b613f9c82613d3d565b810181811067ffffffffffffffff82111715613fbb57613fba613f64565b5b80604052505050565b6000613fce613f46565b9050613fda8282613f93565b919050565b600067ffffffffffffffff821115613ffa57613ff9613f64565b5b61400382613d3d565b9050602081019050919050565b82818337600083830152505050565b600061403261402d84613fdf565b613fc4565b90508281526020810184848401111561404e5761404d613f5f565b5b614059848285614010565b509392505050565b600082601f83011261407657614075613f5a565b5b813561408684826020860161401f565b91505092915050565b6000602082840312156140a5576140a4613f50565b5b600082013567ffffffffffffffff8111156140c3576140c2613f55565b5b6140cf84828501614061565b91505092915050565b60006101008301600083015184820360008601526140f68282613d4e565b915050602083015184820360208601526141108282613d4e565b9150506040830151848203604086015261412a8282613d4e565b915050606083015184820360608601526141448282613d4e565b9150506080830151848203608086015261415e8282613d4e565b91505060a083015184820360a08601526141788282613d4e565b91505060c083015161418d60c0860182613d91565b5060e08301516141a060e0860182613dac565b508091505092915050565b600060208201905081810360008301526141c581846140d8565b905092915050565b6000806000606084860312156141e6576141e5613f50565b5b600084013567ffffffffffffffff81111561420457614203613f55565b5b61421086828701614061565b935050602084013567ffffffffffffffff81111561423157614230613f55565b5b61423d86828701614061565b925050604084013567ffffffffffffffff81111561425e5761425d613f55565b5b61426a86828701614061565b9150509250925092565b61427d81613d87565b811461428857600080fd5b50565b60008135905061429a81614274565b92915050565b600080600080600080600060e0888a0312156142bf576142be613f50565b5b600088013567ffffffffffffffff8111156142dd576142dc613f55565b5b6142e98a828b01614061565b975050602088013567ffffffffffffffff81111561430a57614309613f55565b5b6143168a828b01614061565b965050604088013567ffffffffffffffff81111561433757614336613f55565b5b6143438a828b01614061565b955050606088013567ffffffffffffffff81111561436457614363613f55565b5b6143708a828b01614061565b945050608088013567ffffffffffffffff81111561439157614390613f55565b5b61439d8a828b01614061565b93505060a088013567ffffffffffffffff8111156143be576143bd613f55565b5b6143ca8a828b01614061565b92505060c06143db8a828b0161428b565b91505092959891949750929550565b600082825260208201905092915050565b600061440682613cf7565b61441081856143ea565b9350614420818560208601613d13565b61442981613d3d565b840191505092915050565b600061010082019050818103600083015261444f818b6143fb565b90508181036020830152614463818a6143fb565b9050818103604083015261447781896143fb565b9050818103606083015261448b81886143fb565b9050818103608083015261449f81876143fb565b905081810360a08301526144b381866143fb565b905081810360c08301526144c781856143fb565b905081810360e08301526144db81846143fb565b90509998505050505050505050565b60006101208301600083015184820360008601526145088282613d4e565b915050602083015184820360208601526145228282613d4e565b9150506040830151848203604086015261453c8282613d4e565b915050606083015184820360608601526145568282613d4e565b915050608083015184820360808601526145708282613d4e565b91505060a083015184820360a086015261458a8282613d4e565b91505060c083015161459f60c0860182613dac565b5060e08301516145b260e0860182613dac565b506101008301516145c7610100860182613dac565b508091505092915050565b600060208201905081810360008301526145ec81846144ea565b905092915050565b600081519050919050565b600082825260208201905092915050565b6000819050602082019050919050565b600061012083016000830151848203600086015261463e8282613d4e565b915050602083015184820360208601526146588282613d4e565b915050604083015184820360408601526146728282613d4e565b9150506060830151848203606086015261468c8282613d4e565b915050608083015184820360808601526146a68282613d4e565b91505060a083015184820360a08601526146c08282613d4e565b91505060c08301516146d560c0860182613dac565b5060e08301516146e860e0860182613dac565b506101008301516146fd610100860182613dac565b508091505092915050565b60006147148383614620565b905092915050565b6000602082019050919050565b6000614734826145f4565b61473e81856145ff565b93508360208202850161475085614610565b8060005b8581101561478c578484038952815161476d8582614708565b94506147788361471c565b925060208a01995050600181019050614754565b50829750879550505050505092915050565b600060208201905081810360008301526147b88184614729565b905092915050565b600080600080608085870312156147da576147d9613f50565b5b600085013567ffffffffffffffff8111156147f8576147f7613f55565b5b61480487828801614061565b945050602085013567ffffffffffffffff81111561482557614824613f55565b5b61483187828801614061565b935050604085013567ffffffffffffffff81111561485257614851613f55565b5b61485e87828801614061565b925050606085013567ffffffffffffffff81111561487f5761487e613f55565b5b61488b87828801614061565b91505092959194509250565b7f4e487b7100000000000000000000000000000000000000000000000000000000600052603260045260246000fd5b7f4e487b7100000000000000000000000000000000000000000000000000000000600052602260045260246000fd5b6000600282049050600182168061490d57607f821691505b6020821081036149205761491f6148c6565b5b50919050565b600081905092915050565b60008190508160005260206000209050919050565b60008154614953816148f5565b61495d8186614926565b94506001821660008114614978576001811461498d576149c0565b60ff19831686528115158202860193506149c0565b61499685614931565b60005b838110156149b857815481890152600182019150602081019050614999565b838801955050505b50505092915050565b60006149d58284614946565b915081905092915050565b7f4e487b7100000000000000000000000000000000000000000000000000000000600052601160045260246000fd5b6000614a1a82613d87565b91507fffffffffffffffffffffffffffffffffffffffffffffffffffffffffffffffff8203614a4c57614a4b6149e0565b5b600182019050919050565b6000614a6282613cf7565b614a6c8185614926565b9350614a7c818560208601613d13565b80840191505092915050565b6000614a948284614a57565b915081905092915050565b60006020601f8301049050919050565b600082821b905092915050565b600060088302614aec7fffffffffffffffffffffffffffffffffffffffffffffffffffffffffffffffff82614aaf565b614af68683614aaf565b95508019841693508086168417925050509392505050565b6000819050919050565b6000614b33614b2e614b2984613d87565b614b0e565b613d87565b9050919050565b6000819050919050565b614b4d83614b18565b614b61614b5982614b3a565b848454614abc565b825550505050565b600090565b614b76614b69565b614b81818484614b44565b505050565b5b81811015614ba557614b9a600082614b6e565b600181019050614b87565b5050565b601f821115614bea57614bbb81614931565b614bc484614a9f565b81016020851015614bd3578190505b614be7614bdf85614a9f565b830182614b86565b50505b505050565b600082821c905092915050565b6000614c0d60001984600802614bef565b1980831691505092915050565b6000614c268383614bfc565b9150826002028217905092915050565b614c3f82613cf7565b67ffffffffffffffff811115614c5857614c57613f64565b5b614c6282546148f5565b614c6d828285614ba9565b600060209050601f831160018114614ca05760008415614c8e578287015190505b614c988582614c1a565b865550614d00565b601f198416614cae86614931565b60005b82811015614cd657848901518255600182019150602085019450602081019050614cb1565b86831015614cf35784890151614cef601f891682614bfc565b8355505b6001600288020188555050505b505050505050565b7f557365726e616d6520616c72656164792074616b656e00000000000000000000600082015250565b6000614d3e6016836143ea565b9150614d4982614d08565b602082019050919050565b60006020820190508181036000830152614d6d81614d31565b9050919050565b7f50726f6475637420457869737400000000000000000000000000000000000000600082015250565b6000614daa600d836143ea565b9150614db582614d74565b602082019050919050565b60006020820190508181036000830152614dd981614d9d565b905091905056fea2646970667358221220c56530348db6c2933ca1ce3b1410467c58e845c31ea682dca3a0bc14ff4d92e164736f6c63430008130033",
  "immutableReferences": {},
  "source": "// SPDX-License-Identifier: MIT\npragma solidity >=0.4.22 <0.9.0;\n\ncontract traceability {\n  string[] _productids;\n  string[] _manufacturerids;\n\n  struct manufacturer{\n    string _name;\n    string _address;\n    string _email;\n    string _username;\n    string _contact;\n    string _password;\n    uint _role; \n    bool _status;\n  }\n\n  struct product{\n    string _manufacturer;\n    string _productId;\n    string _productName;\n    string _productDescription;\n    string _distributor;\n    string _retailer;\n    bool _productStatus;\n    bool _distributorStatus;\n    bool _retailerStatus;\n  }\n\n  mapping(string=>manufacturer) _manufacturers;\n  mapping(string=>product) _products;\n\n  function addManufacturer(string memory name,string memory addr,string memory email,string memory username,string memory contact, string memory password,uint role) public {\n    require(!_manufacturers[username]._status,\"Username already taken\");\n\n    manufacturer memory new_manufacturer =  manufacturer(name,addr,email,username,contact,password,role,true);\n    _manufacturers[username]=new_manufacturer;\n    _manufacturerids.push(username);\n  }\n\n  function viewManufacturers(string memory username) public view returns(manufacturer memory) {\n    return (_manufacturers[username]);\n  }\n\n  function addProduct(string memory manu,string memory productid,string memory productname,string memory productdescription) public {\n    require(!_products[productid]._productStatus,\"Product Exist\");\n\n    product memory new_product = product(manu,productid,productname,productdescription,manu,manu,true,false,false);\n    _products[productid]=new_product;\n\n    _productids.push(productid);\n  }\n\n  function viewProduct(string memory productid) public view returns (product memory){\n    return (_products[productid]);\n  }\n\n  function viewProducts() public view returns(product[] memory){\n    product[] memory allProducts = new product[](_productids.length);\n\n    for(uint i=0;i<_productids.length;i++){\n      allProducts[i]=_products[_productids[i]];\n    }\n    return allProducts;\n  }\n\n  function updateDistributor(string memory manu,string memory productid,string memory d) public {\n    if(keccak256(abi.encodePacked(_products[productid]._manufacturer))==keccak256(abi.encodePacked(manu))){\n      if(_products[productid]._distributorStatus==false){\n        _products[productid]._distributor=d;\n        _products[productid]._distributorStatus=true;\n      }\n    }\n  }\n\n  function updateRetailer(string memory d,string memory productid,string memory r) public {\n    if(keccak256(abi.encodePacked(_products[productid]._distributor))==keccak256(abi.encodePacked(d))){\n      if(_products[productid]._distributorStatus==true){\n        _products[productid]._retailer=r;\n        _products[productid]._retailerStatus=true;\n      }\n    }\n  }\n\n  function viewUsers() public view returns(manufacturer[] memory){\n    manufacturer[] memory allUsers = new manufacturer[](_manufacturerids.length);\n\n    for(uint i=0;i<_manufacturerids.length;i++){\n      allUsers[i]=_manufacturers[_manufacturerids[i]];\n    }\n    return allUsers;\n  }\n\n  function viewProductsByManu(string memory username) public view returns(product[] memory){\n    uint count=0;\n\n    for(uint i=0;i<_productids.length;i++){\n      if(keccak256(abi.encodePacked(_products[_productids[i]]._manufacturer))==keccak256(abi.encodePacked(username))){\n        count++;\n      }\n    }\n\n    product[] memory myProducts = new product[](count);\n    uint index=0;\n\n    for(uint i=0;i<_productids.length;i++){\n      if(keccak256(abi.encodePacked(_products[_productids[i]]._manufacturer))==keccak256(abi.encodePacked(username))){\n        myProducts[index]=_products[_productids[i]];\n        index++;\n      }\n    }\n    return myProducts;\n  }\n\n  function viewProductsByDistributor(string memory distributor) public view returns (product[] memory) {\n    uint count = 0;\n\n    for (uint i = 0; i < _productids.length; i++) {\n        if (keccak256(abi.encodePacked(_products[_productids[i]]._distributor)) == keccak256(abi.encodePacked(distributor))) {\n            count++;\n        }\n    }\n\n    product[] memory distributorProducts = new product[](count);\n    uint index = 0;\n\n    for (uint i = 0; i < _productids.length; i++) {\n        if (keccak256(abi.encodePacked(_products[_productids[i]]._distributor)) == keccak256(abi.encodePacked(distributor))) {\n            distributorProducts[index] = _products[_productids[i]];\n            index++;\n        }\n    }\n    return distributorProducts;\n  }\n\n  function viewProductsByRetailer(string memory retailer) public view returns (product[] memory) {\n    uint count = 0;\n\n    for (uint i = 0; i < _productids.length; i++) {\n        if (keccak256(abi.encodePacked(_products[_productids[i]]._retailer)) == keccak256(abi.encodePacked(retailer))) {\n            count++;\n        }\n    }\n\n    product[] memory retailerProducts = new product[](count);\n    uint index = 0;\n\n    for (uint i = 0; i < _productids.length; i++) {\n        if (keccak256(abi.encodePacked(_products[_productids[i]]._retailer)) == keccak256(abi.encodePacked(retailer))) {\n            retailerProducts[index] = _products[_productids[i]];\n            index++;\n        }\n    }\n    return retailerProducts;\n  }\n\n  function traceProduct(string memory productId) public view \n        returns (\n            string memory productName,\n            string memory productDescription,\n            string memory manufacturerName,\n            string memory manufacturerAddress,\n            string memory distributorName,\n            string memory distributorAddress,\n            string memory retailerName,\n            string memory retailerAddress\n        ) \n    {\n        // Fetch the product using product ID\n        product memory prod = _products[productId];\n\n        // Fetch manufacturer details\n        manufacturer memory manu = _manufacturers[prod._manufacturer];\n        \n        // Default values for distributor and retailer\n        string memory distributorName = \"Not Assigned\";\n        string memory distributorAddress = \"Not Assigned\";\n        string memory retailerName = \"Not Assigned\";\n        string memory retailerAddress = \"Not Assigned\";\n        \n        // Fetch distributor details if assigned\n        if (prod._distributorStatus) {\n            manufacturer memory dist = _manufacturers[prod._distributor];\n            distributorName = dist._name;\n            distributorAddress = dist._address;\n        }\n        \n        // Fetch retailer details if assigned\n        if (prod._retailerStatus) {\n            manufacturer memory retail = _manufacturers[prod._retailer];\n            retailerName = retail._name;\n            retailerAddress = retail._address;\n        }\n        \n        return (\n            prod._productName,\n            prod._productDescription,\n            manu._name,\n            manu._address,\n            distributorName,\n            distributorAddress,\n            retailerName,\n            retailerAddress\n        );\n    }\n\n\n\n}\n",
  "sourcePath": "C:\\Users\\hemas\\OneDrive\\Desktop\\hackathon\\contracts\\traceability.sol",
  "compiler": {
    "name": "solc",
    "version": "0.8.19+commit.7dd6d404.Emscripten.clang"
  },
  "schemaVersion": "3.4.16",
  "updatedAt": "2024-11-02T03:26:10.871Z",
  "networkType": "ethereum",
  "devdoc": {
    "kind": "dev",
    "methods": {},
    "version": 1
  },
  "userdoc": {
    "kind": "user",
    "methods": {},
    "version": 1
  }
}